{
  "contractName": "baseContract",
  "abi": [
    {
      "anonymous": false,
      "inputs": [
        {
          "indexed": false,
          "internalType": "uint256",
          "name": "itemId",
          "type": "uint256"
        },
        {
          "indexed": false,
          "internalType": "address",
          "name": "winner",
          "type": "address"
        },
        {
          "indexed": false,
          "internalType": "uint256",
          "name": "highestBid",
          "type": "uint256"
        }
      ],
      "name": "AuctionEnded",
      "type": "event"
    },
    {
      "anonymous": false,
      "inputs": [
        {
          "indexed": false,
          "internalType": "uint256",
          "name": "itemId",
          "type": "uint256"
        }
      ],
      "name": "AuctionStarted",
      "type": "event"
    },
    {
      "anonymous": false,
      "inputs": [
        {
          "indexed": false,
          "internalType": "uint256",
          "name": "itemId",
          "type": "uint256"
        },
        {
          "indexed": false,
          "internalType": "address",
          "name": "bidder",
          "type": "address"
        },
        {
          "indexed": false,
          "internalType": "uint256",
          "name": "amount",
          "type": "uint256"
        }
      ],
      "name": "BidPlaced",
      "type": "event"
    },
    {
      "anonymous": false,
      "inputs": [
        {
          "indexed": false,
          "internalType": "uint256",
          "name": "itemId",
          "type": "uint256"
        },
        {
          "indexed": false,
          "internalType": "address",
          "name": "buyer",
          "type": "address"
        },
        {
          "indexed": false,
          "internalType": "uint256",
          "name": "price",
          "type": "uint256"
        }
      ],
      "name": "ItemBought",
      "type": "event"
    },
    {
      "anonymous": false,
      "inputs": [
        {
          "indexed": false,
          "internalType": "uint256",
          "name": "itemId",
          "type": "uint256"
        },
        {
          "indexed": false,
          "internalType": "address",
          "name": "owner",
          "type": "address"
        },
        {
          "indexed": false,
          "internalType": "uint256",
          "name": "price",
          "type": "uint256"
        }
      ],
      "name": "ItemListed",
      "type": "event"
    },
    {
      "inputs": [
        {
          "internalType": "uint256",
          "name": "",
          "type": "uint256"
        }
      ],
      "name": "itemIds",
      "outputs": [
        {
          "internalType": "uint256",
          "name": "",
          "type": "uint256"
        }
      ],
      "stateMutability": "view",
      "type": "function",
      "constant": true
    },
    {
      "inputs": [
        {
          "internalType": "uint256",
          "name": "",
          "type": "uint256"
        }
      ],
      "name": "items",
      "outputs": [
        {
          "internalType": "uint256",
          "name": "itemId",
          "type": "uint256"
        },
        {
          "internalType": "address",
          "name": "owner",
          "type": "address"
        },
        {
          "internalType": "uint256",
          "name": "price",
          "type": "uint256"
        },
        {
          "internalType": "bool",
          "name": "available",
          "type": "bool"
        },
        {
          "internalType": "uint256",
          "name": "highestBid",
          "type": "uint256"
        },
        {
          "internalType": "address",
          "name": "highestBidder",
          "type": "address"
        }
      ],
      "stateMutability": "view",
      "type": "function",
      "constant": true
    },
    {
      "inputs": [
        {
          "internalType": "uint256",
          "name": "",
          "type": "uint256"
        }
      ],
      "name": "owners",
      "outputs": [
        {
          "internalType": "address",
          "name": "",
          "type": "address"
        }
      ],
      "stateMutability": "view",
      "type": "function",
      "constant": true
    },
    {
      "inputs": [
        {
          "internalType": "uint256",
          "name": "itemId",
          "type": "uint256"
        },
        {
          "internalType": "uint256",
          "name": "price",
          "type": "uint256"
        }
      ],
      "name": "setListing",
      "outputs": [],
      "stateMutability": "nonpayable",
      "type": "function"
    },
    {
      "inputs": [
        {
          "internalType": "uint256",
          "name": "itemId",
          "type": "uint256"
        }
      ],
      "name": "buyItem",
      "outputs": [],
      "stateMutability": "payable",
      "type": "function",
      "payable": true
    },
    {
      "inputs": [
        {
          "internalType": "uint256",
          "name": "itemId",
          "type": "uint256"
        }
      ],
      "name": "setBid",
      "outputs": [],
      "stateMutability": "payable",
      "type": "function",
      "payable": true
    },
    {
      "inputs": [
        {
          "internalType": "uint256",
          "name": "itemId",
          "type": "uint256"
        }
      ],
      "name": "startAuction",
      "outputs": [],
      "stateMutability": "nonpayable",
      "type": "function"
    },
    {
      "inputs": [
        {
          "internalType": "uint256",
          "name": "itemId",
          "type": "uint256"
        }
      ],
      "name": "endAuction",
      "outputs": [],
      "stateMutability": "nonpayable",
      "type": "function"
    },
    {
      "inputs": [],
      "name": "getOwners",
      "outputs": [
        {
          "internalType": "address[16]",
          "name": "",
          "type": "address[16]"
        }
      ],
      "stateMutability": "view",
      "type": "function",
      "constant": true
    },
    {
      "inputs": [
        {
          "internalType": "uint256",
          "name": "itemId",
          "type": "uint256"
        }
      ],
      "name": "getListing",
      "outputs": [
        {
          "components": [
            {
              "internalType": "uint256",
              "name": "itemId",
              "type": "uint256"
            },
            {
              "internalType": "address",
              "name": "owner",
              "type": "address"
            },
            {
              "internalType": "uint256",
              "name": "price",
              "type": "uint256"
            },
            {
              "internalType": "bool",
              "name": "available",
              "type": "bool"
            },
            {
              "internalType": "uint256",
              "name": "highestBid",
              "type": "uint256"
            },
            {
              "internalType": "address",
              "name": "highestBidder",
              "type": "address"
            }
          ],
          "internalType": "struct baseContract.Item",
          "name": "",
          "type": "tuple"
        }
      ],
      "stateMutability": "view",
      "type": "function",
      "constant": true
    },
    {
      "inputs": [
        {
          "internalType": "uint256",
          "name": "itemId",
          "type": "uint256"
        }
      ],
      "name": "getAvailability",
      "outputs": [
        {
          "internalType": "bool",
          "name": "",
          "type": "bool"
        }
      ],
      "stateMutability": "view",
      "type": "function",
      "constant": true
    },
    {
      "inputs": [
        {
          "internalType": "uint256",
          "name": "itemId",
          "type": "uint256"
        },
        {
          "internalType": "bool",
          "name": "status",
          "type": "bool"
        }
      ],
      "name": "setAvailability",
      "outputs": [],
      "stateMutability": "nonpayable",
      "type": "function"
    },
    {
      "inputs": [
        {
          "internalType": "uint256",
          "name": "itemId",
          "type": "uint256"
        }
      ],
      "name": "getBuyer",
      "outputs": [
        {
          "internalType": "address",
          "name": "",
          "type": "address"
        }
      ],
      "stateMutability": "view",
      "type": "function",
      "constant": true
    },
    {
      "inputs": [
        {
          "internalType": "uint256",
          "name": "itemId",
          "type": "uint256"
        },
        {
          "internalType": "address",
          "name": "newBuyer",
          "type": "address"
        }
      ],
      "name": "setBuyer",
      "outputs": [],
      "stateMutability": "nonpayable",
      "type": "function"
    },
    {
      "inputs": [
        {
          "internalType": "uint256",
          "name": "itemId",
          "type": "uint256"
        }
      ],
      "name": "getBid",
      "outputs": [
        {
          "internalType": "uint256",
          "name": "",
          "type": "uint256"
        }
      ],
      "stateMutability": "view",
      "type": "function",
      "constant": true
    },
    {
      "inputs": [
        {
          "internalType": "uint256",
          "name": "itemId",
          "type": "uint256"
        }
      ],
      "name": "verifyListing",
      "outputs": [
        {
          "internalType": "bool",
          "name": "",
          "type": "bool"
        }
      ],
      "stateMutability": "view",
      "type": "function",
      "constant": true
    },
    {
      "inputs": [
        {
          "internalType": "uint256",
          "name": "itemId",
          "type": "uint256"
        },
        {
          "internalType": "address",
          "name": "buyer",
          "type": "address"
        }
      ],
      "name": "verifyBuyer",
      "outputs": [
        {
          "internalType": "bool",
          "name": "",
          "type": "bool"
        }
      ],
      "stateMutability": "view",
      "type": "function",
      "constant": true
    },
    {
      "inputs": [
        {
          "internalType": "uint256",
          "name": "itemId",
          "type": "uint256"
        },
        {
          "internalType": "address",
          "name": "seller",
          "type": "address"
        }
      ],
      "name": "verifySeller",
      "outputs": [
        {
          "internalType": "bool",
          "name": "",
          "type": "bool"
        }
      ],
      "stateMutability": "view",
      "type": "function",
      "constant": true
    },
    {
      "inputs": [],
      "name": "add",
      "outputs": [
        {
          "internalType": "uint256",
          "name": "",
          "type": "uint256"
        }
      ],
      "stateMutability": "pure",
      "type": "function",
      "constant": true
    }
  ],
  "bytecode": "0x608060405234801561001057600080fd5b506121ac806100206000396000f3fe6080604052600436106101145760003560e01c8063a0e67e2b116100a0578063cd6a8eca11610064578063cd6a8eca14610400578063cef55b9a1461043d578063de667e7014610459578063e2a3b66a14610482578063e7fb74c7146104bf57610114565b8063a0e67e2b14610304578063a865bf801461032f578063b3dc00fe14610358578063b9a2de3a14610395578063bfb231d2146103be57610114565b8063292c42c5116100e7578063292c42c5146101f95780633c889e6f146102225780634f2be91f1461025f5780635bf608b81461028a57806399f90a8e146102c757610114565b8063025e7c2714610119578063065de74c14610156578063107a274a1461017f57806320fed772146101bc575b600080fd5b34801561012557600080fd5b50610140600480360381019061013b919061182d565b6104db565b60405161014d9190611da6565b60405180910390f35b34801561016257600080fd5b5061017d6004803603810190610178919061182d565b610511565b005b34801561018b57600080fd5b506101a660048036038101906101a1919061182d565b61061e565b6040516101b39190611f58565b60405180910390f35b3480156101c857600080fd5b506101e360048036038101906101de919061182d565b6107d6565b6040516101f09190611ddd565b60405180910390f35b34801561020557600080fd5b50610220600480360381019061021b91906118ce565b610845565b005b34801561022e57600080fd5b506102496004803603810190610244919061182d565b610aaa565b6040516102569190611f73565b60405180910390f35b34801561026b57600080fd5b50610274610aca565b6040516102819190611f73565b60405180910390f35b34801561029657600080fd5b506102b160048036038101906102ac919061182d565b610af0565b6040516102be9190611da6565b60405180910390f35b3480156102d357600080fd5b506102ee60048036038101906102e99190611856565b610b30565b6040516102fb9190611ddd565b60405180910390f35b34801561031057600080fd5b50610319610b9f565b6040516103269190611dc1565b60405180910390f35b34801561033b57600080fd5b5061035660048036038101906103519190611892565b610c20565b005b34801561036457600080fd5b5061037f600480360381019061037a919061182d565b610cf6565b60405161038c9190611f73565b60405180910390f35b3480156103a157600080fd5b506103bc60048036038101906103b7919061182d565b610d1a565b005b3480156103ca57600080fd5b506103e560048036038101906103e0919061182d565b6110b5565b6040516103f796959493929190611fc5565b60405180910390f35b34801561040c57600080fd5b506104276004803603810190610422919061182d565b61113e565b6040516104349190611ddd565b60405180910390f35b6104576004803603810190610452919061182d565b61116b565b005b34801561046557600080fd5b50610480600480360381019061047b9190611856565b611386565b005b34801561048e57600080fd5b506104a960048036038101906104a49190611856565b611483565b6040516104b69190611ddd565b60405180910390f35b6104d960048036038101906104d4919061182d565b6114f2565b005b600081601081106104eb57600080fd5b016000915054906101000a900473ffffffffffffffffffffffffffffffffffffffff1681565b3373ffffffffffffffffffffffffffffffffffffffff166011600083815260200190815260200160002060010160009054906101000a900473ffffffffffffffffffffffffffffffffffffffff1673ffffffffffffffffffffffffffffffffffffffff16146105b5576040517f08c379a00000000000000000000000000000000000000000000000000000000081526004016105ac90611e18565b60405180910390fd5b60016011600083815260200190815260200160002060030160006101000a81548160ff0219169083151502179055507f1bb96dff6ab5005aff98cdc0cf176bb7d8e0423cb48e02217d35b042cec81e9f816040516106139190611f73565b60405180910390a150565b610626611767565b600073ffffffffffffffffffffffffffffffffffffffff166011600084815260200190815260200160002060010160009054906101000a900473ffffffffffffffffffffffffffffffffffffffff1673ffffffffffffffffffffffffffffffffffffffff1614156106cc576040517f08c379a00000000000000000000000000000000000000000000000000000000081526004016106c390611f38565b60405180910390fd5b601160008381526020019081526020016000206040518060c0016040529081600082015481526020016001820160009054906101000a900473ffffffffffffffffffffffffffffffffffffffff1673ffffffffffffffffffffffffffffffffffffffff1673ffffffffffffffffffffffffffffffffffffffff168152602001600282015481526020016003820160009054906101000a900460ff16151515158152602001600482015481526020016005820160009054906101000a900473ffffffffffffffffffffffffffffffffffffffff1673ffffffffffffffffffffffffffffffffffffffff1673ffffffffffffffffffffffffffffffffffffffff16815250509050919050565b60008073ffffffffffffffffffffffffffffffffffffffff166011600084815260200190815260200160002060010160009054906101000a900473ffffffffffffffffffffffffffffffffffffffff1673ffffffffffffffffffffffffffffffffffffffff1614159050919050565b60008111610888576040517f08c379a000000000000000000000000000000000000000000000000000000000815260040161087f90611e38565b60405180910390fd5b6040518060c001604052808381526020013373ffffffffffffffffffffffffffffffffffffffff16815260200182815260200160011515815260200160008152602001600073ffffffffffffffffffffffffffffffffffffffff16815250601160008481526020019081526020016000206000820151816000015560208201518160010160006101000a81548173ffffffffffffffffffffffffffffffffffffffff021916908373ffffffffffffffffffffffffffffffffffffffff1602179055506040820151816002015560608201518160030160006101000a81548160ff0219169083151502179055506080820151816004015560a08201518160050160006101000a81548173ffffffffffffffffffffffffffffffffffffffff021916908373ffffffffffffffffffffffffffffffffffffffff16021790555090505060108290806001815401808255809150506001900390600052602060002001600090919091909150553360008360108110610a2c577f4e487b7100000000000000000000000000000000000000000000000000000000600052603260045260246000fd5b0160006101000a81548173ffffffffffffffffffffffffffffffffffffffff021916908373ffffffffffffffffffffffffffffffffffffffff1602179055507fc93edc6ee14cd6c0c2842099adfa8953b237dbdad304ba28e96dce8a7f2a828c823383604051610a9e93929190611f8e565b60405180910390a15050565b600060116000838152602001908152602001600020600401549050919050565b600080600a905060006010905060008183610ae59190612064565b905080935050505090565b60006011600083815260200190815260200160002060050160009054906101000a900473ffffffffffffffffffffffffffffffffffffffff169050919050565b60008173ffffffffffffffffffffffffffffffffffffffff166011600085815260200190815260200160002060050160009054906101000a900473ffffffffffffffffffffffffffffffffffffffff1673ffffffffffffffffffffffffffffffffffffffff1614905092915050565b610ba76117cb565b6000601080602002604051908101604052809291908260108015610c16576020028201915b8160009054906101000a900473ffffffffffffffffffffffffffffffffffffffff1673ffffffffffffffffffffffffffffffffffffffff1681526020019060010190808311610bcc575b5050505050905090565b3373ffffffffffffffffffffffffffffffffffffffff166011600084815260200190815260200160002060010160009054906101000a900473ffffffffffffffffffffffffffffffffffffffff1673ffffffffffffffffffffffffffffffffffffffff1614610cc4576040517f08c379a0000000000000000000000000000000000000000000000000000000008152600401610cbb90611e78565b60405180910390fd5b806011600084815260200190815260200160002060030160006101000a81548160ff0219169083151502179055505050565b60108181548110610d0657600080fd5b906000526020600020016000915090505481565b3373ffffffffffffffffffffffffffffffffffffffff166011600083815260200190815260200160002060010160009054906101000a900473ffffffffffffffffffffffffffffffffffffffff1673ffffffffffffffffffffffffffffffffffffffff1614610dbe576040517f08c379a0000000000000000000000000000000000000000000000000000000008152600401610db590611df8565b60405180910390fd5b600073ffffffffffffffffffffffffffffffffffffffff166011600083815260200190815260200160002060050160009054906101000a900473ffffffffffffffffffffffffffffffffffffffff1673ffffffffffffffffffffffffffffffffffffffff161415610e64576040517f08c379a0000000000000000000000000000000000000000000000000000000008152600401610e5b90611eb8565b60405180910390fd5b6011600082815260200190815260200160002060050160009054906101000a900473ffffffffffffffffffffffffffffffffffffffff166011600083815260200190815260200160002060010160006101000a81548173ffffffffffffffffffffffffffffffffffffffff021916908373ffffffffffffffffffffffffffffffffffffffff16021790555060006011600083815260200190815260200160002060030160006101000a81548160ff0219169083151502179055506011600082815260200190815260200160002060050160009054906101000a900473ffffffffffffffffffffffffffffffffffffffff1660008260108110610f8f577f4e487b7100000000000000000000000000000000000000000000000000000000600052603260045260246000fd5b0160006101000a81548173ffffffffffffffffffffffffffffffffffffffff021916908373ffffffffffffffffffffffffffffffffffffffff1602179055503373ffffffffffffffffffffffffffffffffffffffff166108fc60116000848152602001908152602001600020600401549081150290604051600060405180830381858888f1935050505015801561102a573d6000803e3d6000fd5b507fd2aa34a4fdbbc6dff6a3e56f46e0f3ae2a31d7785ff3487aa5c95c642acea501816011600084815260200190815260200160002060050160009054906101000a900473ffffffffffffffffffffffffffffffffffffffff1660116000858152602001908152602001600020600401546040516110aa93929190611f8e565b60405180910390a150565b60116020528060005260406000206000915090508060000154908060010160009054906101000a900473ffffffffffffffffffffffffffffffffffffffff16908060020154908060030160009054906101000a900460ff16908060040154908060050160009054906101000a900473ffffffffffffffffffffffffffffffffffffffff16905086565b60006011600083815260200190815260200160002060030160009054906101000a900460ff169050919050565b6011600082815260200190815260200160002060030160009054906101000a900460ff166111ce576040517f08c379a00000000000000000000000000000000000000000000000000000000081526004016111c590611e58565b60405180910390fd5b60116000828152602001908152602001600020600401543411611226576040517f08c379a000000000000000000000000000000000000000000000000000000000815260040161121d90611ed8565b60405180910390fd5b60006011600083815260200190815260200160002060040154146112d8576011600082815260200190815260200160002060050160009054906101000a900473ffffffffffffffffffffffffffffffffffffffff1673ffffffffffffffffffffffffffffffffffffffff166108fc60116000848152602001908152602001600020600401549081150290604051600060405180830381858888f193505050501580156112d6573d6000803e3d6000fd5b505b346011600083815260200190815260200160002060040181905550336011600083815260200190815260200160002060050160006101000a81548173ffffffffffffffffffffffffffffffffffffffff021916908373ffffffffffffffffffffffffffffffffffffffff1602179055507f0e54eff26401bf69b81b26f60bd85ef47f5d85275c1d268d84f68d6897431c4781333460405161137b93929190611f8e565b60405180910390a150565b3373ffffffffffffffffffffffffffffffffffffffff166011600084815260200190815260200160002060010160009054906101000a900473ffffffffffffffffffffffffffffffffffffffff1673ffffffffffffffffffffffffffffffffffffffff161461142a576040517f08c379a000000000000000000000000000000000000000000000000000000000815260040161142190611ef8565b60405180910390fd5b806011600084815260200190815260200160002060050160006101000a81548173ffffffffffffffffffffffffffffffffffffffff021916908373ffffffffffffffffffffffffffffffffffffffff1602179055505050565b60008173ffffffffffffffffffffffffffffffffffffffff166011600085815260200190815260200160002060010160009054906101000a900473ffffffffffffffffffffffffffffffffffffffff1673ffffffffffffffffffffffffffffffffffffffff1614905092915050565b6011600082815260200190815260200160002060030160009054906101000a900460ff16611555576040517f08c379a000000000000000000000000000000000000000000000000000000000815260040161154c90611f18565b60405180910390fd5b60116000828152602001908152602001600020600201543410156115ae576040517f08c379a00000000000000000000000000000000000000000000000000000000081526004016115a590611e98565b60405180910390fd5b6011600082815260200190815260200160002060010160009054906101000a900473ffffffffffffffffffffffffffffffffffffffff1673ffffffffffffffffffffffffffffffffffffffff166108fc349081150290604051600060405180830381858888f1935050505015801561162a573d6000803e3d6000fd5b50336011600083815260200190815260200160002060010160006101000a81548173ffffffffffffffffffffffffffffffffffffffff021916908373ffffffffffffffffffffffffffffffffffffffff16021790555060006011600083815260200190815260200160002060030160006101000a81548160ff02191690831515021790555033600082601081106116ea577f4e487b7100000000000000000000000000000000000000000000000000000000600052603260045260246000fd5b0160006101000a81548173ffffffffffffffffffffffffffffffffffffffff021916908373ffffffffffffffffffffffffffffffffffffffff1602179055507fd73457218f6ab2c74e548247b8ccd99af11d7975e2beef89a0cd9743fb558da481333460405161175c93929190611f8e565b60405180910390a150565b6040518060c0016040528060008152602001600073ffffffffffffffffffffffffffffffffffffffff1681526020016000815260200160001515815260200160008152602001600073ffffffffffffffffffffffffffffffffffffffff1681525090565b604051806102000160405280601090602082028036833780820191505090505090565b6000813590506117fd81612131565b92915050565b60008135905061181281612148565b92915050565b6000813590506118278161215f565b92915050565b60006020828403121561183f57600080fd5b600061184d84828501611818565b91505092915050565b6000806040838503121561186957600080fd5b600061187785828601611818565b9250506020611888858286016117ee565b9150509250929050565b600080604083850312156118a557600080fd5b60006118b385828601611818565b92505060206118c485828601611803565b9150509250929050565b600080604083850312156118e157600080fd5b60006118ef85828601611818565b925050602061190085828601611818565b9150509250929050565b60006119168383611922565b60208301905092915050565b61192b816120ba565b82525050565b61193a816120ba565b82525050565b61194981612030565b6119538184612048565b925061195e82612026565b8060005b8381101561198f578151611976878261190a565b96506119818361203b565b925050600181019050611962565b505050505050565b6119a0816120cc565b82525050565b6119af816120cc565b82525050565b60006119c2602283612053565b91507f4f6e6c7920746865206f776e65722063616e20656e642074686520617563746960008301527f6f6e0000000000000000000000000000000000000000000000000000000000006020830152604082019050919050565b6000611a28602483612053565b91507f4f6e6c7920746865206f776e65722063616e207374617274207468652061756360008301527f74696f6e000000000000000000000000000000000000000000000000000000006020830152604082019050919050565b6000611a8e601f83612053565b91507f5072696365206d7573742062652067726561746572207468616e207a65726f006000830152602082019050919050565b6000611ace601e83612053565b91507f4974656d206e6f7420617661696c61626c6520666f722062696464696e6700006000830152602082019050919050565b6000611b0e602683612053565b91507f4f6e6c7920746865206f776e65722063616e206368616e676520617661696c6160008301527f62696c69747900000000000000000000000000000000000000000000000000006020830152604082019050919050565b6000611b74601283612053565b91507f496e73756666696369656e742066756e647300000000000000000000000000006000830152602082019050919050565b6000611bb4601083612053565b91507f4e6f2062696473207265636569766564000000000000000000000000000000006000830152602082019050919050565b6000611bf4602f83612053565b91507f426964206d75737420626520686967686572207468616e20746865206375727260008301527f656e7420686967686573742062696400000000000000000000000000000000006020830152604082019050919050565b6000611c5a601e83612053565b91507f4f6e6c7920746865206f776e65722063616e20736574206120627579657200006000830152602082019050919050565b6000611c9a601b83612053565b91507f4974656d206e6f7420617661696c61626c6520666f722073616c6500000000006000830152602082019050919050565b6000611cda601383612053565b91507f4974656d20646f6573206e6f74206578697374000000000000000000000000006000830152602082019050919050565b60c082016000820151611d236000850182611d88565b506020820151611d366020850182611922565b506040820151611d496040850182611d88565b506060820151611d5c6060850182611997565b506080820151611d6f6080850182611d88565b5060a0820151611d8260a0850182611922565b50505050565b611d91816120f8565b82525050565b611da0816120f8565b82525050565b6000602082019050611dbb6000830184611931565b92915050565b600061020082019050611dd76000830184611940565b92915050565b6000602082019050611df260008301846119a6565b92915050565b60006020820190508181036000830152611e11816119b5565b9050919050565b60006020820190508181036000830152611e3181611a1b565b9050919050565b60006020820190508181036000830152611e5181611a81565b9050919050565b60006020820190508181036000830152611e7181611ac1565b9050919050565b60006020820190508181036000830152611e9181611b01565b9050919050565b60006020820190508181036000830152611eb181611b67565b9050919050565b60006020820190508181036000830152611ed181611ba7565b9050919050565b60006020820190508181036000830152611ef181611be7565b9050919050565b60006020820190508181036000830152611f1181611c4d565b9050919050565b60006020820190508181036000830152611f3181611c8d565b9050919050565b60006020820190508181036000830152611f5181611ccd565b9050919050565b600060c082019050611f6d6000830184611d0d565b92915050565b6000602082019050611f886000830184611d97565b92915050565b6000606082019050611fa36000830186611d97565b611fb06020830185611931565b611fbd6040830184611d97565b949350505050565b600060c082019050611fda6000830189611d97565b611fe76020830188611931565b611ff46040830187611d97565b61200160608301866119a6565b61200e6080830185611d97565b61201b60a0830184611931565b979650505050505050565b6000819050919050565b600060109050919050565b6000602082019050919050565b600081905092915050565b600082825260208201905092915050565b600061206f826120f8565b915061207a836120f8565b9250827fffffffffffffffffffffffffffffffffffffffffffffffffffffffffffffffff038211156120af576120ae612102565b5b828201905092915050565b60006120c5826120d8565b9050919050565b60008115159050919050565b600073ffffffffffffffffffffffffffffffffffffffff82169050919050565b6000819050919050565b7f4e487b7100000000000000000000000000000000000000000000000000000000600052601160045260246000fd5b61213a816120ba565b811461214557600080fd5b50565b612151816120cc565b811461215c57600080fd5b50565b612168816120f8565b811461217357600080fd5b5056fea264697066735822122029b869609182c9ac05cc59ee445ef572a3a0cdcbf4680ee116420a9bad39de6a64736f6c63430008000033",
  "immutableReferences": {},
  "source": "// SPDX-License-Identifier: MIT\r\npragma solidity ^0.8.0;\r\n\r\ncontract baseContract {\r\n    struct Item {\r\n        uint itemId;\r\n        address owner;\r\n        uint price;\r\n        bool available;\r\n        uint highestBid;\r\n        address highestBidder;\r\n    }\r\n\r\n    address[16] public owners;\r\n    uint[] public itemIds;\r\n    mapping(uint => Item) public items;\r\n\r\n    event ItemListed(uint itemId, address owner, uint price);\r\n    event ItemBought(uint itemId, address buyer, uint price);\r\n    event BidPlaced(uint itemId, address bidder, uint amount);\r\n    event AuctionStarted(uint itemId);\r\n    event AuctionEnded(uint itemId, address winner, uint highestBid);\r\n\r\n    function setListing(uint itemId, uint price) public {\r\n        require(price > 0, \"Price must be greater than zero\");\r\n        items[itemId] = Item({\r\n            itemId: itemId,\r\n            owner: msg.sender,\r\n            price: price,\r\n            available: true,\r\n            highestBid: 0,\r\n            highestBidder: address(0)\r\n        });\r\n        itemIds.push(itemId);\r\n        owners[itemId] = msg.sender;\r\n        emit ItemListed(itemId, msg.sender, price);\r\n    }\r\n\r\n    function buyItem(uint itemId) public payable {\r\n        require(items[itemId].available, \"Item not available for sale\");\r\n        require(msg.value >= items[itemId].price, \"Insufficient funds\");\r\n\r\n        // Transfer ownership of the item and update state\r\n        payable(items[itemId].owner).transfer(msg.value);\r\n        items[itemId].owner = msg.sender;\r\n        items[itemId].available = false;\r\n        owners[itemId] = msg.sender;\r\n\r\n        emit ItemBought(itemId, msg.sender, msg.value);\r\n    }\r\n\r\n    function setBid(uint itemId) public payable {\r\n        require(items[itemId].available, \"Item not available for bidding\");\r\n        require(msg.value > items[itemId].highestBid, \"Bid must be higher than the current highest bid\");\r\n\r\n        // Refund the previous highest bidder\r\n        if (items[itemId].highestBid != 0) {\r\n            payable(items[itemId].highestBidder).transfer(items[itemId].highestBid);\r\n        }\r\n\r\n        items[itemId].highestBid = msg.value;\r\n        items[itemId].highestBidder = msg.sender;\r\n\r\n        emit BidPlaced(itemId, msg.sender, msg.value);\r\n    }\r\n\r\n    function startAuction(uint itemId) public {\r\n        require(items[itemId].owner == msg.sender, \"Only the owner can start the auction\");\r\n        items[itemId].available = true;\r\n        emit AuctionStarted(itemId);\r\n    }\r\n\r\n    function endAuction(uint itemId) public {\r\n        require(items[itemId].owner == msg.sender, \"Only the owner can end the auction\");\r\n        require(items[itemId].highestBidder != address(0), \"No bids received\");\r\n\r\n        // Transfer ownership to highest bidder\r\n        items[itemId].owner = items[itemId].highestBidder;\r\n        items[itemId].available = false;\r\n        owners[itemId] = items[itemId].highestBidder;\r\n\r\n        // Pay the seller\r\n        payable(msg.sender).transfer(items[itemId].highestBid);\r\n\r\n        emit AuctionEnded(itemId, items[itemId].highestBidder, items[itemId].highestBid);\r\n    }\r\n\r\n    function getOwners() public view returns (address[16] memory) {\r\n        return owners;\r\n    }\r\n\r\n    function getListing(uint itemId) public view returns (Item memory) {\r\n        require(items[itemId].owner != address(0), \"Item does not exist\");\r\n        return items[itemId];\r\n    }\r\n\r\n    function getAvailability(uint itemId) public view returns (bool) {\r\n        return items[itemId].available;\r\n    }\r\n\r\n    function setAvailability(uint itemId, bool status) public {\r\n        require(items[itemId].owner == msg.sender, \"Only the owner can change availability\");\r\n        items[itemId].available = status;\r\n    }\r\n\r\n    function getBuyer(uint itemId) public view returns (address) {\r\n        return items[itemId].highestBidder;\r\n    }\r\n\r\n    function setBuyer(uint itemId, address newBuyer) public {\r\n        require(items[itemId].owner == msg.sender, \"Only the owner can set a buyer\");\r\n        items[itemId].highestBidder = newBuyer;\r\n    }\r\n\r\n    function getBid(uint itemId) public view returns (uint) {\r\n        return items[itemId].highestBid;\r\n    }\r\n\r\n    function verifyListing(uint itemId) public view returns (bool) {\r\n        return items[itemId].owner != address(0);\r\n    }\r\n\r\n    function verifyBuyer(uint itemId, address buyer) public view returns (bool) {\r\n        return items[itemId].highestBidder == buyer;\r\n    }\r\n\r\n    function verifySeller(uint itemId, address seller) public view returns (bool) {\r\n        return items[itemId].owner == seller;\r\n    }\r\n\r\n    //I AM PURELY A TEST FOR HTML FRONT END!!\r\n    function add() public pure returns(uint){\r\n        uint num1 = 10;\r\n        uint num2 = 16;\r\n        uint sum = num1 + num2;\r\n        return sum;\r\n    }\r\n}\r\n",
  "sourcePath": "C:\\Users\\Valkyrie\\Desktop\\196SmartContract\\contracts\\baseContract.sol",
  "compiler": {
    "name": "solc",
    "version": "0.8.0+commit.c7dfd78e.Emscripten.clang"
  },
  "schemaVersion": "3.4.16",
  "updatedAt": "2024-11-27T01:21:34.838Z",
  "networkType": "ethereum",
  "devdoc": {
    "kind": "dev",
    "methods": {},
    "version": 1
  },
  "userdoc": {
    "kind": "user",
    "methods": {},
    "version": 1
  }
}